:020000040800F2
:10000000080A002091020008C9650008CB650008B5
:10001000CD650008CF650008D1650008000000002C
:10002000000000000000000000000000D365000890
:10003000D565000800000000D7650008DB650008F2
:10004000AB020008AB020008AB020008DB4C000862
:10005000AB020008AB020008AB020008AB020008CC
:10006000AB020008AB020008AB020008DF43000847
:10007000E5430008EB430008F1430008F74300089C
:10008000FD43000803440008AB020008AB0200086F
:10009000AB020008AB020008AB020008AB0200088C
:1000A000AB020008AB020008AB020008AB0200087C
:1000B000AB020008AB020008AB020008AB0200086C
:1000C000AB020008AB020008AB020008AB0200085C
:1000D000AB020008AB020008AB020008AB0200084C
:1000E000AB020008FD4C0008AB020008AB020008A0
:1000F000AB020008AB020008AB020008094400088C
:10010000AB020008AB020008AB020008AB0200081B
:10011000AB020008AB020008AB020008AB0200080B
:100120000F44000813440008194400081F44000845
:1001300025440008AB020008AB020008AB0200082F
:10014000AB020008AB020008AB020008AB020008DB
:100150002B4400083144000837440008AB02000873
:10016000AB020008AB020008AB020008AB020008BB
:10017000AB020008AB020008AB0200080000000060
:10018000AB020008AB02000800F002F800F070F8C3
:100190000AA090E8000C82448344AAF10107DA45E2
:1001A00001D100F065F8AFF2090EBAE80F0013F0C4
:1001B000010F18BFFB1A43F001031847C48B00005E
:1001C000E48B00000A444FF0000C10F8013B13F0E0
:1001D000070408BF10F8014B1D1108BF10F8015BA0
:1001E000641E05D010F8016B641E01F8016BF9D193
:1001F00013F0080F1EBF10F8014BAD1C0C1B09D1EA
:100200006D1E58BF01F801CBFAD505E014F8016B5B
:1002100001F8016B6D1EF9D59142D6D370470000ED
:100220000023002400250026103A28BF78C1FBD8FF
:10023000520728BF30C148BF0B607047662907F0DE
:100240000B85642906F00C83002070471FB507F06A
:10025000FEFC9DE8030006F0E5FB06F0A3FE0400AB
:100260000020002107F066FCE0601FBD10B510BD46
:1002700006F0B6FF1146FFF7E9FF05F094FF06F020
:10028000D4FF03B4FFF7F2FF03BC07F045F800000A
:100290000948804709480047FEE7FEE7FEE7FEE71A
:1002A000FEE7FEE7FEE7FEE7FEE7FEE70448054956
:1002B000054A064B70470000876600088901000860
:1002C00008040020080A0020080600200806002074
:1002D0002849084328490860704730B50F23C27881
:1002E00001780125FAB1244A126801F1E02102F4F3
:1002F000E062C2F5E062C2F30722C2F10404D34017
:100300004278A24084781C401443220181F80024E2
:10031000007800F01F018D404009800000F1E020CE
:10032000C0F8005130BD01F01F0085404809800031
:1003300000F1E020C0F8805130BD104A1140014367
:100340000D48001F016070470B4A121D00291168FB
:1003500001D0014300E08143116070474FF0E0217C
:100360000428086903D020F004000861704740F0B9
:100370000400FAE70000FA050CED00E080FFFF1F23
:10038000F848016841F001010160F64A0021083295
:1003900011600268F44B1A400260031DF34A1A60B0
:1003A000F04BF34A84331A60F04A103A1B1D1A606E
:1003B000026822F480220260EA480C300160181DB5
:1003C00001607047E7490022891C0A700870704775
:1003D00002460020510901290CD002290CD0E14924
:1003E0007431096802F01F02012393400B4200D0D0
:1003F00001207047DB49F4E7DA497031F1E718B5BD
:1004000000204FF4A04400903120FFF7E1FF009955
:10041000491C0091A14201D00028F5D03120FFF7FE
:10042000D7FF002800D0012018BDCE4A116821F066
:10043000F80141EAC00010607047CE49086070477B
:10044000C849002270310A700A70012802D00428BD
:1004500001D1052008707047C7490860704741EA1C
:1004600082115A0810B5C54B029C03EB024211439E
:10047000014341EA0460BB49091D086010BDBD4944
:1004800008667047800140EA0170B649843108600F
:100490007047B84988667047800140EA0160B149F9
:1004A00040EA0270883108607047B24908677047B7
:1004B000B049C8647047AB4B08331A68084322F050
:1004C000EC62104318607047A64B08331A68084363
:1004D00022F07842104318607047A24A083211682F
:1004E00021F003010143116070479E480830006805
:1004F00000F00C0070479B4A0832116821F0F001AF
:10050000014311607047974A0832116821F4E051A5
:10051000014311607047934A0832116821F4604129
:1005200041EAC0001060704770B58E4B08331968FF
:10053000934C11F00C0104D0924E042903D00829E9
:1005400003D004601BE0066019E0864A121D1168A2
:10055000C1F38055116801F03F0115B1B6FBF1F10F
:1005600001E0B4FBF1F114681268C4F3881461432C
:10057000C2F30142521C5200B1FBF2F10160196852
:100580000F2202EA1111804A545C0168E140416087
:100590001C68072505EA9424145D21FA04F484609C
:1005A0001B6805EA5333D25CD140C16070BDC0F313
:1005B0000121032908D16B4B08331968734A21F4D0
:1005C000F81102400A431A60664970310A68C0F3A4
:1005D0000B0002430A60704767494439086070475E
:1005E00065494039086070476249C1F85C0170474D
:1005F0005C4A8C32116821F440110143116070474C
:10060000584A8C32116821F440010143116070474F
:10061000544A8C321168401E21F01F0101431160C1
:100620007047504A8C3211686FF0FF0321F4F85183
:1006300003EB00200843106070474A4A8C3211686F
:1006400021F440310143116070475149C1F8E00184
:100650007047444A30320029116801D0014300E05C
:100660008143116070473F4A34320029116801D03C
:10067000014300E08143116070473A4A3832002953
:10068000116801D0014300E0814311607047354A91
:1006900040320029116801D0014300E0814311601C
:1006A0007047304A44320029116801D0014300E00C
:1006B0008143116070472B4A10320029116801D024
:1006C000014300E0814311607047264A143200293B
:1006D000116801D0014300E0814311607047214A55
:1006E00018320029116801D0014300E081431160F4
:1006F00070471C4A20320029116801D0014300E0F4
:10070000814311607047174A24320029116801D0D3
:10071000014300E0814311607047124A50320029C2
:10072000116801D0014300E08143116070470D4A18
:1007300054320029116801D0014300E08143116067
:100740007047084A58320029116801D0014300E07F
:10075000814311607047034A60320029116819D043
:10076000014318E000380240FFFFF6EA1030002491
:100770000030002000004742800E47420000FFFF8B
:100780000024F40040787D0100000020FFFCFF0FF2
:1007900000104742814311607047194A00291168CF
:1007A00001D0014300E081431160704714490C31CE
:1007B0000128086803D020F008000860704740F066
:1007C0000800FAE70E4A573A0029117801D0014390
:1007D00000E081431170704709481030016841F012
:1007E0008071016070470146054A0020583A12683E
:1007F0000A4200D0012070470149563908707047FD
:1008000064380240774910B5884206D10121084674
:10081000FFF751FF002101205BE07349884206D1B8
:1008200001210220FFF747FF0021022051E06F491C
:10083000884206D101210420FFF73DFF002104205A
:1008400047E06B49884206D101210820FFF733FFBA
:10085000002108203DE06749884206D1012110208F
:10086000FFF729FF0021102033E06349884206D1B9
:1008700001212020FFF71FFF0021202029E05F49F0
:10088000884206D101214020FFF715FF00214020BA
:100890001FE05B49884206D101218020FFF70BFF52
:1008A0000021802015E05749884202D1012184159A
:1008B0000AE05549884202D10121441504E0534918
:1008C00088420AD1012104152046FFF7F4FE0021D9
:1008D0002046BDE81040FFF7EEBE10BDF0B5002287
:1008E00001274FF0030C0B6807FA02F52B40AB42CF
:1008F0002CD1066853000CFA03F4A64306600E7967
:10090000D0F800E09E4046EA0E0606600E79012E01
:1009100001D0022E12D18668A64386604E79D0F8A7
:1009200008E09E4046EA0E0686604668AE43466092
:1009300045688E799640B6B235434560C568A54393
:10094000C560CC799C40C3681C43C460521C102A0B
:10095000C9D3F0BD4FF6FF710160002101714171F3
:100960008171C171704708B541F480320092C26153
:10097000C1610099C161C169C069009008BD0246AA
:10098000002012690A4200D001207047006980B23D
:1009900070470246002052690A4200D00120704789
:1009A000406980B2704701837047418370470AB144
:1009B00001837047418370474161704742694A40F3
:1009C000426170474B07DB0E9A40C90810B500EB37
:1009D0008100016A0F249C40A1430162016A114316
:1009E000016210BD00000240000402400008024005
:1009F000000C0240001002400014024000180240A7
:100A0000001C024000200240002402400028024056
:100A10002DE9F043016821F001010160002101602E
:100A200041608160C160016121214161B849B84ADA
:100A30003D251039904202D18D60BDE8F083B44A63
:100A40004FF474661832904201D18E60F5E7B04AD7
:100A50004FF474173032904201D18F60EDE7AC4A09
:100A60004FF0746C4832904202D1C1F808C0E4E7FC
:100A7000A74BA84A6033984201D1CA60DDE7A44C75
:100A8000A54B7834A04201D1CB60D6E7DFF8808255
:100A9000A24C08F19008404501D1CC60CDE7DFF8C9
:100AA00070824FF03D5908F1A808404502D1C1F8C5
:100AB0000C90C2E79A49DFF868820839404501D1B5
:100AC0000D60BAE7964D1835A84201D10E60B4E723
:100AD000934D3035A84201D10F60AEE7904D4835B7
:100AE000A84202D1C1F800C0A7E78D4D8C496035FE
:100AF000091FA84201D10A609FE7894A78329042D3
:100B000001D10B6099E7864A9032904201D10C6086
:100B100093E7834AA83290428FD1C1F800908CE7C6
:100B200030B503687F4ACC6813400A682243D1E994
:100B300005452C432243CC6922430C6A22434C6A6C
:100B400022438C6A22434C6B22438C6B22431A4310
:100B50000260426922F00703D1E90B2422431A43C1
:100B600042610A6942604A6882608968C16030BD3A
:100B70000021016041608160C1600161416181616A
:100B8000C161016241628162C1620163416381634B
:100B900070470029016802D041F0010101E021F015
:100BA0000101016070470029016802D041F4004151
:100BB00001E021F40041016070470029016802D082
:100BC00041F0200101E021F0200101607047416007
:100BD0007047406880B27047002A026802D042F431
:100BE000002201E022F40022026001617047002926
:100BF000016802D041F4802101E021F480210160EC
:100C000070470AB101617047C1607047014600201A
:100C10000968090300D501207047014600200968D2
:100C2000C90700D001207047406900F038007047C4
:100C300002463B4B00209A4202D2354A103A01E06C
:100C4000374A103A8B0001D5526800E01268364BE3
:100C50001A400A4200D001207047314A904202D225
:100C60002B48103801E02E4810382F4A8B0001EA3B
:100C7000020101D5C1607047816070470B0607D53E
:100C8000436912B143F0800301E023F08003436124
:100C9000802908D0002A026801F01E0101D00A4311
:100CA00000E08A430260704730B51D4A002490423C
:100CB00002D2174A103A01E0194A103A1B4B194266
:100CC00005D01E2303EAD12503682B4002E04069CA
:100CD00000F08003880001D5506800E01068124AD7
:100CE0001040084201D003B10124204630BD0C4A17
:100CF000904202D20648103801E0094810380A4AEA
:100D00008B0001EA020101D5C16070478160704724
:100D1000106002403D000020400F002000003D20F8
:100D2000106402403F801CF07D0F7D0F3C0F3C0F94
:100D3000C14910B5884202D10121841424E0BF4981
:100D4000884202D10121041404E0BD4988420AD13D
:100D50000121C4132046FFF7CCFC2046BDE810401B
:100D60000021FFF7C6BCB749884202D101214414D3
:100D70000AE0B549884202D101210C0504E0B349DB
:100D800088420AD101214C052046FFF7BCFC2046D1
:100D9000BDE810400021FFF7B6BC10BD30B5028899
:100DA0004C8802F441530A88CD8822438C882C4316
:100DB00022430C8922434C8922438C892243CC89CB
:100DC00022431A430280828B22F400628283098AC2
:100DD000018230BDF0B502220023858B01244FF241
:100DE0004006354085830284868B8D68022D3DD078
:100DF0008A8802B10224964A13681B0203D513683D
:100E000023F400031360924A7C3213681268C3F320
:100E100088138F4FC2F302723F1F3D683F6805F091
:100E20003F057F0201D58B4F00E08B4FB7FBF5F5F7
:100E30005D43B5FBF2F2CB88B3F5007F2BD06301A5
:100E4000B2FBF3F202EB82028B685200B2FBF3F2C8
:100E5000521D92B20A23B2FBF3F202F00103D21A3E
:100E60004FF6FF74C2F34F0204EA0323941EFE2CD4
:100E700001D302220023CC881A43144304840A8835
:100E80004B881A438B8889890B431A43324342F4B7
:100E900000618183F0BD120AD4E700210180418006
:100EA0008180C180018141818181C18107210182CD
:100EB00070470021018041808180C18002228260D0
:100EC000818170470029018802D041F0400101E092
:100ED00021F04001018070470029818B02D041F44C
:100EE000806101E021F4806181837047028822F4EF
:100EF0000062028002880A4302807047B1F5804F89
:100F0000018803D021F480410180704741F4804181
:100F1000FAE7A1F57E420188FF3A02D041F48071E0
:100F200001E021F48071018070470029818802D09E
:100F300041F0040101E021F00401818070470029A3
:100F4000818802D041F0100101E021F01001818080
:100F5000704730B5828B00234FF2400422408283D9
:100F600002220284848B0A884FF48075B2F5007FD8
:100F700000D002B92B464A888D8889892A431943B3
:100F80000A43224342F40061818330BD8089704767
:100F9000818170470029018802D041F4005101E0AD
:100FA00021F4005101807047018841F48051018093
:100FB0007047012901D0008B7047808A7047008AF2
:100FC0007047002A828801D00A4300E08A43828069
:100FD0007047090901238B40002A828899B201D009
:100FE0000A4300E08A43828070470246002012894B
:100FF0000A4200D001207047C9430181704730B5D3
:1010000001F00F030125024605FA03F40020A3B204
:10101000090905FA01F49188A4B2128921401A4203
:1010200002D0002900D0012030BD01F00F020121C3
:101030009140C943018170470030014000380040B1
:10104000003C004000340140005001400054014089
:101050000838024040787D010024F40018B50020D3
:10106000FA4B0090CA20186053201860F7491839CD
:10107000086820F0A00008604FF400340868009A67
:1010800000F02000521C0092A24201D00028F5D0AE
:101090000868800601D5012000E00020FF211960CA
:1010A00018BD08B5E94900201839009008684006C5
:1010B00012D44FF0FF3008608B130868009A00F0DC
:1010C0004000521C00929A4201D00028F5D00868D6
:1010D000400601D4002008BD012008BD78B50024D9
:1010E000DA4ECA2000942546306053203060FFF766
:1010F000D8FFE0B3D54824380460D44942F2011047
:10110000203908600B1D186800F0070018608D1367
:101110001A1D1068009900F00400491C0091A942B2
:1011200001D00028F5D01068400729D518681C6048
:10113000C6494FF6FF7010390860091FC44808609F
:10114000C2480C380460001D0460001D0460BF48E4
:1011500008300460BD4818300460BC48203004608A
:10116000001D04601460B9481C30046000E003E016
:10117000FFF774FF20B10125FF203060284678BDBD
:101180000025F9E7B1481838016821F080010160B5
:10119000704770B5AD4E04460025CA20306053201C
:1011A0003060FFF77EFFA8B1A8481C38016821F025
:1011B000400101600168226811430160A348A168F1
:1011C000143801600168A28841EA02410160FFF71A
:1011D000D9FF0125FF203060284670BD0021016045
:1011E0007F214160FF2181607047984908B1FF204D
:1011F00002E0CA20086053200860704770B5934E23
:1012000005460024CA20306053203060FFF749FFB4
:1012100060B18E481C38016815B141F0100101E041
:1012200021F010010160FFF7ADFF0124FF203060C5
:10123000204670BD854ACA2111605321116083493F
:101240001C390028086802D040F0200001E000F0BE
:10125000DF000860FF20106070472DE9F0410C4668
:1012600000267C4F01002078396832464FEA416100
:1012700004D000292FDA00F00CFC2DE0002900DB5F
:10128000E27000F0FAFB0504607800F0F6FB45EA36
:101290000025A07800F0F1FB0543E07845EA004521
:1012A0006A4CCA20206053202060FFF7FAFE68B124
:1012B00069480540674808380560FFF763FF3868EC
:1012C000800602D4FFF7CAFE00B10126FF2020608D
:1012D0003046BDE8F081E270A078217840EA01450F
:1012E0006078E178000240EA01400543D8E7002138
:1012F000C1700170417081707047020010B557488D
:101300000C460168544801EA0001C1F30540207011
:10131000C1F30623637001F07F03A3704FF0400315
:1013200003EA1141E1700AD100F0B3FB207060784C
:1013300000F0AFFB6070A07800F0ABFBA07010BDB8
:101340004248001D00684349091F0968704770B58D
:101350000C460026010060780FD000F09AFBA078C0
:1013600000F097FBA078E17840EA014560782178A9
:10137000000240EA4130054315E0C10603D520F0E4
:1013800010000A306070E07800F077FB05046078A8
:1013900000F073FB45EA0025A07800F06EFB0543E2
:1013A000207845EA4035294CCA202060532020602F
:1013B000FFF777FE70B12A4805402648001F0560F8
:1013C000FFF7E0FE23480068800602D4FFF746FEE0
:1013D00000B10126FF202060304670BD0121017060
:1013E000817041700021C1707047020010B51D4826
:1013F0000C4601681A4801EA00014FEA1140E0700A
:10140000C1F30423637001F03F03A370C1F34231C1
:1014100021700AD100F03DFBE070607800F039FBEC
:101420006070A07800F035FBA07010BD70B5144658
:101430000D46084A0021002810684FEA406013D08A
:1014400000282ADA207800F024FB27E02428004036
:10145000FF007F00082800407F7F7F0000280040B9
:101460003FFFFF0004280040002800DBE1702078E7
:1014700000F003FB0604607800F0FFFA46EA00265D
:10148000A07800F0FAFA0643E07846EA0046207BAE
:1014900000F0F3FA46EA006010E0E170207B00F013
:1014A000F8FAA0782178E27840EA014061780902F0
:1014B00041EA02410843217B40EA0160A1680843F8
:1014C00061680843F849CA220A6053220A60B5F5E8
:1014D000807F04D00A1F1060FF20086070BDF24AB0
:1014E000083AF8E70021C170017041708170012253
:1014F000816002734160704710B514460246B1F531
:10150000807F2AD0E848001F0168C1F305402070A1
:10151000C1F30623637001F07F03A370402303EA45
:101520001143E370C1F30563237301F0804301F0BD
:101530008031C4E90113002A0ED100F0AAFA20700C
:10154000607800F0A6FA6070A07800F0A2FAA070AF
:10155000207B00F09EFA207310BDD3480838D3E7F3
:1015600038B50022D04C0092CA2222605322226059
:10157000CD4A1C3A0029116802D00143116012E0E3
:1015800081431160C84A183A95131168009B01EA1B
:1015900010215B1C0093AB4201D00029F5D01168EB
:1015A00011EA102000D00120FF21216038BD10B5C4
:1015B000BD4BCA241C6053241C601143B0F5807FCE
:1015C00005D0B94824300160FF20186010BDB6482E
:1015D0002030F8E7B0F5807F05D0B34824300068AC
:1015E000C0F30E007047B0482030F8E7AE4ACA2179
:1015F000116053211160AC491C390B6823F00703BB
:101600000B600B6803430B60FF2010607047A64916
:10161000CA220A6053220A60A34A103A1060FF20CF
:1016200008607047A0481038006880B2704718B54D
:1016300000219D4B0091CA211960532119609A49DC
:101640001C390028086803D040F48060086014E06A
:1016500020F480600860944918398C130868009A57
:1016600000F00400521C0092A24201D00028F5D0E4
:101670000868400701D4002000E00120FF21196024
:1016800018BD894B10B5CA221A6053221A60864AC7
:101690001C3A146824F4802414601468084304433A
:1016A0001460FF20186010BD7F481C38006800F4EB
:1016B000802070477C4B10B5CA221A6053221A60F2
:1016C000794A1C3A146824F4E0041460146808434E
:1016D00004431460FF20186010BDF0B5724D06463B
:1016E0000024CA200F46286053202860FFF7D9FC49
:1016F00030B16D483E430C380660FFF743FD0124CE
:10170000FF2028602046F0BD70B5674E05460024D6
:10171000CA20306053203060FFF7C3FC60B16248DC
:101720001C38016815B141F0800101E021F0800111
:101730000160FFF727FD0124FF203060204670BDC7
:10174000594ACA2111605321116057491C39002898
:10175000086802D040F4000001E020F400000860B6
:10176000FF2010607047504ACA2111605321116058
:101770004D491C390B6823F400230B600B680343AD
:101780000B60FF2010607047F0B5474D0023CA245E
:101790002C6053242C60444C183C2668F60308D572
:1017A0004FF400362768FF0303D5B34201D05B1C1A
:1017B000F8E72368DB0306D408433B49104318319C
:1017C0000860012000E00020FF212960F0BD364BB9
:1017D00010B51C3B1A6840F60804A24342EA000216
:1017E00009B142F400623048CA210160532101600E
:1017F0001A60FF21016010BD70B50D462A491446DC
:101800000C310968294A1140274A103212684FF6F4
:101810003F731A40C1F305432B70C1F306236B706D
:1018200001F07F03AB70402303EA1141E97000210E
:10183000E170C2F30421617002F03F01A170C2F3B4
:1018400042312170002817D1287800F022F9287041
:10185000687800F01EF96870A87800F01AF9A8708E
:10186000607800F016F96070A07800F012F9A070AE
:10187000207800F00EF9207070BD0B48143000681D
:101880007047094A1C320029116803D041EA400020
:101890001060704721EA4000FAE7034A1C32002931
:1018A000116805D0014304E0242800407F7F7F00B9
:1018B0008143116070477B490A6822F4C0520A6074
:1018C0000A6802430A60704776490A6822F4E062B7
:1018D0000A600A6802430A60704772490A6822F483
:1018E000C0420A600A6802430A6070476D490028D6
:1018F000086802D040F0800001E020F0800008601D
:10190000704768490028086802D020F4004001E0D0
:1019100040F4004008607047624A08B5103202EB9C
:1019200080000090016008BD5E4908B5103101EBF0
:1019300080000090006808BD5A490A6822F480328D
:101940000A600A6802430A60704756490A6822F42E
:1019500000320A600A6802430A60704751490A6807
:1019600022F480220A600A6802430A60704770B558
:101970004C4C0022CA231C3C236053232360494B58
:10198000343B1D682D0707D59E141D682D0703D510
:10199000B24201D0521CF8E71A6812070DD4414A2E
:1019A000383A1268D20608D401433E481438016020
:1019B000FFF754FB10B1012000E00020FF2121605F
:1019C00070BD30B5374DCA221C3D2A6053222A60B3
:1019D000344C20F00402383C0029324B216800F0DE
:1019E000040004D0114321601968014303E09143CE
:1019F0002160196881431960FF20286030BD0246CC
:101A00002849002034390968274B1940114200D079
:101A10000120704780B240F08000C1432148343833
:101A2000026802F080021143016070471D4A10B540
:101A3000126800211B4B02F00402383B1B6802EACB
:101A4000D0340340234302EA10421343174A12687A
:101A500002EA101003D00004000C00D00121084657
:101A600010BDC0F30F1040F08000C1430F48026862
:101A700002F08002114301607047002103E0491C1D
:101A80000A38C9B2C0B20A28F9D2090740EA11607F
:101A90007047010901EB810100F00F0000EB4100EC
:101AA000C0B27047402800407F7F01000C280040F2
:101AB000FE4910B5884206D101210846FEF723FEF3
:101AC000002101205BE0B0F1804F09D0F849884245
:101AD0000DD101210220FEF70CFE0021022070E052
:101AE00001210846FEF705FE0021012069E0F149C9
:101AF000884206D101210420FEF7FBFD00210420CD
:101B00005FE0ED49884206D101210820FEF7F1FD92
:101B10000021082055E0E949884206D10121102022
:101B2000FEF7E7FD002110204BE0E549884206D191
:101B300001212020FEF7DDFD0021202041E0E149C8
:101B4000884206D101210220FEF7DDFD002102209E
:101B500015E0DD49884202D101210C040AE0DB498D
:101B6000884202D101214C0404E0D94988420AD1BB
:101B700001218C042046FEF7C6FD00212046BDE869
:101B80001040FEF7C0BDD349884206D10121402054
:101B9000FEF7AFFD0021402013E0CF49884206D177
:101BA00001218020FEF7A5FD0021802009E0CB491E
:101BB00088420AD1841501212046FEF79AFD0021B2
:101BC0002046BDE81040FEF794BD10BD30B5028838
:101BD000B64CBC4DA0420DD0A8420BD0B0F1804F06
:101BE00008D0B34B984205D0B24B984202D0B24BCA
:101BF000984203D122F070034A881A43AF4B9842AF
:101C000006D0AF4B984203D022F440730A891A439E
:101C100002804A68C2620A880285A04201D0A842B6
:101C200001D1897A01860121818230BD4FF0FF31D7
:101C300041600021018001814180817270470185EE
:101C400082827047028822F070020A430280704745
:101C500041627047C1627047406A7047008D7047AB
:101C60000029018802D041F0020101E021F00201C7
:101C7000018070470029018802D041F0040101E091
:101C800021F00401018070470029018802D041F051
:101C9000800101E021F0800101807047028822F07C
:101CA0000802028002880A4302807047028822F4F8
:101CB0004072028002880A4302807047002901882E
:101CC00002D041F0010101E021F0010101807047E3
:101CD00030B5028C22F001020284028C8388048BCE
:101CE00022F0020224F073050C882C438D891543E1
:101CF0004A882A436D4DA84202D0724DA8420DD1A8
:101D000022F00805CA8923F440732A4322F004050F
:101D10008A882A430D8A1D434B8A2B438380048380
:101D200089684163028430BD70B5028C22F01002D4
:101D30000284028C8388048B0D8824F4E6464FF6D7
:101D4000FF7404EA052535438E8922F0200204EA57
:101D5000061616434A8804EA02123243534EB04232
:101D600002D0584EB04215D122F08006CA8923F421
:101D7000406304EA0212324322F040068A8804EAF1
:101D8000021232430E8A04EA86061E434B8A04EA94
:101D9000830333438380058389688163028470BD34
:101DA00070B5028C22F480720284028C8388848B4A
:101DB0000D8824F0730425438E894FF6FF7422F4B6
:101DC000007204EA062616434A8804EA02223243D5
:101DD000364EB04202D03B4EB04215D122F40066DE
:101DE000CA8923F4405304EA0222324322F4806673
:101DF0008A8804EA022232430E8A04EA06161E4347
:101E00004B8A04EA03133343838085838968C16363
:101E1000028470BD70B5028C22F480520284058C5D
:101E20008288838B0C8823F4E6464FF6FF7303EA1F
:101E30000424344325F400568D8903EA05353543DF
:101E40004E8803EA06362E43184DA84202D01D4D97
:101E5000A84205D122F480450A8A03EA82122A4365
:101E60008280848389680164068470BD00210180BA
:101E70004180818081608181C1810182418270477E
:101E800030B50124058C00F118038C40A54305846E
:101E900031B308292CD0091FC1F34E001844016842
:101EA00048F6FF731940016001681AE00000014024
:101EB0000004004000080040000C004000100040FA
:101EC0000014004000040140004001400044014073
:101ED0000048014000180040001C00400020004065
:101EE00006E04FF6FF7303EA02221143016030BDA2
:101EF00003EB510001684FF68F73194001600168D0
:101F0000F3E74163704781637047C16370470164C1
:101F10007047028B22F070020A4302837047028BE3
:101F20004FF6FF7322F4E04203EA012111430183DB
:101F30007047828B22F070020A4382837047828B43
:101F40004FF6FF7322F4E04203EA0121114381833B
:101F50007047028B22F008020A4302837047028B0B
:101F60004FF6FF7322F4006203EA0121114301835B
:101F70007047828B22F008020A4382837047828B6B
:101F80004FF6FF7322F4006203EA012111438183BB
:101F90007047028B22F004020A4302837047028BCF
:101FA0004FF6FF7322F4806203EA0121114301839B
:101FB0007047828B22F004020A4382837047828B2F
:101FC0004FF6FF7322F4806203EA012111438183FB
:101FD0007047028B22F080020A4302837047028B13
:101FE0004FF6FF73C2F30E0203EA0121114301838E
:101FF0007047828B22F080020A4382837047828B73
:102000004FF6FF73C2F30E0203EA012111438183ED
:102010007047028C22F002020A4302847047028C4D
:1020200022F008020A4302847047028C4FF6FF73C5
:1020300022F0200203EA0111114301847047028C4F
:102040004FF6FF7322F0800203EA0111114301846D
:102050007047028C4FF6FF7322F4007203EA0121ED
:10206000114301847047028C4FF6FF7322F4006223
:1020700003EA0121114301847047028C4FF6FF737C
:1020800022F4005203EA013111430184704710B574
:102090000123048C8B409C430484038C8A401343AB
:1020A000038410BD10B50423048C8B409C4304842E
:1020B000038C8A401343038410BD828B22F4406258
:1020C0008283828B4FF6FF7303EA01210A438283E6
:1020D0007047828B22F00C028283828B0A438283B8
:1020E0007047028B22F440620283028B4FF6FF732B
:1020F00003EA01210A4302837047F0B5048C24F0FF
:1021000010040484078B068C4FF6FF7404EA011553
:1021100027F4734704EA0331394304EA02220A43ED
:1021200026F0A001294341F0100102830184F0BD93
:10213000028B22F00C020283028B0A430283704757
:102140002DE9F0410C460E884988A288238905466E
:102150000EB3042E26D0082E2E8C4FF6FF7028D0FA
:1021600026F480562E84AF8B2E8C00EA022200EAE1
:10217000013127F473473A4300EA0330104326F451
:1021800020420A4342F48051A8832984E1882846EA
:10219000BDE8F04191E700F062F9E1882846BDE82A
:1021A000F041C5E7FFF7A9FFE1882846BDE8F04107
:1021B00097E726F480762E84AF8B2E8C00EA0121DF
:1021C00000EA0310104327F0F307384326F4206297
:1021D0000A4342F48071A8832984E1882846BDE837
:1021E000F04176E700210180418001228280C18098
:1021F000018170472DE9F0410C46002649880746C9
:10220000012501B90226A288012A00D102252088D1
:1022100023890028384610D0FFF76FFFE188384641
:10222000FFF75FFF23892A463146384600F017F949
:10223000E1883846BDE8F0417AE700F010F9E1881E
:102240003846FFF775FF23892A4631463846FFF79F
:1022500054FFE1883846BDE8F04142E7406B7047E3
:10226000806B7047C06B7047006C704710B50A8870
:102270004B88CC881A438B8823431A430B891A4313
:102280004B8989891A430A43A0F8442010BD0021D4
:10229000018041808180C1800181418181817047BD
:1022A000002930F8441F02D041F4004101E0C1F39D
:1022B0000E01018070470029818802D041F004019D
:1022C00001E021F00401818070470029818802D05B
:1022D00041F0010101E021F0010181807047002AF5
:1022E000828901D00A4300E08A438281704781825B
:1022F000704702460020128A0A4200D0012070472F
:10230000C9430182704702460020138A92890B421A
:1023100002EA010202D0002A00D001207047C9431E
:10232000018270471143A0F848107047002A828943
:1023300001D00A4300E08A438281704700298188E6
:1023400002D041F0080101E021F0080181807047CE
:10235000018921F0070101817047028922F0700292
:102360000A430281704700B50346FFF7F6FF18895C
:1023700040F00700188100BD70B516460D46602973
:1023800004464FF0010231460AD000F068F82946B1
:102390002046FFF7E2FF208940F00700208170BD52
:1023A000FFF7ABFEF3E730B504894FF6FF7505EA9A
:1023B00003231343E4B20B432343038130BD10B521
:1023C0000446FFF7F0FF208940F07700208110BD20
:1023D00010B50446FFF7E7FF208940F480402081D4
:1023E00010BD828822F07002828082880A43828037
:1023F0007047028922F00702028102890A430281A2
:102400007047028922F08002028102890A43028118
:10241000704770B50589048B068C25F007050D43C0
:102420004FF6FC410C4040F201110C434FF6FF7196
:1024300001EA031126F0220611433143058104838A
:10244000018470BD0029818802D041F0800101E043
:1024500021F0800181807047A0F85010704770B55E
:10246000048C24F001040484058B048C4FF6FF7661
:1024700006EA0313134325F0F3052B4324F00A0265
:102480000A4342F001010383018470BDF9490870D9
:102490007047F8490028086802D040F4807001E0D5
:1024A00020F4807008607047F2490028086802D064
:1024B00040F4007001E020F4007008607047ED49BE
:1024C0000028086802D040F4806001E020F48060B9
:1024D00008607047E748016841F400610160704797
:1024E000E448016841F4805101607047E1481030D0
:1024F0000068002805DADF48DF49001D0160DF4978
:1025000001607047DB481030016841F00041016014
:102510007047D84909200C310A68D20301D501203F
:1025200070470A68D20601D5062070470A68D205AE
:1025300001D5022070470A6812F0E00F01D0072091
:10254000704709688907FBD50820704708B509203E
:102550008DF80000FFF7DDFF8DF800009DF800000A
:102560000128F7D09DF8000008BD70B5064600258B
:1025700029B1012928D0022929D04FF44075FFF74D
:10258000E5FF09281FD1BB4C1034206820F44070AF
:102590002060206828432060206820F0F800206038
:1025A000206846F0020108432060206840F4803033
:1025B0002060FFF7CBFF216821F002012160216834
:1025C00021F0F801216070BD4FF48075D7E74FF41A
:1025D0000075D4E730B504460025FFF7B7FF2CB1EE
:1025E000012C1DD0022C1ED04FF44075092816D1A5
:1025F000A04C1034206820F44070206020682843EC
:102600002060206840F004002060206840F48030A2
:102610002060FFF79BFF216821F00401216030BD9D
:102620004FF48075E2E74FF40075DFE730B50446FC
:102630000025FFF78BFF2CB1012C1DD0022C1ED0E2
:102640004FF44075092816D18A4C1034206820F4C4
:1026500040702060206828432060206840F004001B
:102660002060206840F480302060FFF76FFF216811
:1026700021F00401216030BD4FF48075E2E74FF492
:102680000075DFE730B504460025FFF75FFF2CB18A
:10269000012C1DD0022C1ED04FF44075092816D1F4
:1026A000744C1034206820F4407020602068284367
:1026B0002060206840F400402060206840F48030B2
:1026C0002060FFF743FF216821F40041216030BD05
:1026D0004FF48075E2E74FF40075DFE7F0B516467A
:1026E0001F460546FFF732FF092815D1614C10340B
:1026F000206820F440702060206840F44070206022
:10270000206840F0010020602E606F60FFF71EFF20
:10271000216821F001012160F0BD70B50D4606462B
:10272000FFF714FF092814D1524C1034206820F40C
:1027300040702060206840F400702060206840F005
:10274000010020603560FFF701FF216821F00101E1
:10275000216070BD70B50D460646FFF7F7FE0928EB
:1027600014D1444C1034206820F44070206020685C
:1027700040F480702060206840F0010020603580C7
:10278000FFF7E4FE216821F00101216070BD70B502
:102790000D460646FFF7DAFE092812D1354C1034F3
:1027A000206820F44070206020682060206840F09D
:1027B000010020603570FFF7C9FE216821F001019A
:1027C000216070BD2B4814300068C00705D029482F
:1027D0002B49083001602B490160704725481430AF
:1027E000016841F001010160704730B50D460446B3
:1027F000FFF7ACFE092807D11E48163001880DB13D
:10280000A14300E02143018030BD30B50D460446B0
:10281000FFF79CFE092807D116481A3001880DB130
:10282000A14300E02143018030BD124A17321178E4
:1028300001F07F0108431070704730B50D46044623
:10284000FFF784FE092807D10A4A163210880DB115
:10285000204300E0A043108030BD30B50D46044653
:10286000FFF774FE092811D1024A1A3210885DB1AF
:1028700020430AE0003C024023016745AB89EFCDCD
:102880003B2A19087F6E5D4CA043108030BD10B507
:102890000446FFF75BFE092801D13548047010BDDE
:1028A00070B515460C460646FFF750FE092808D1BC
:1028B0002F49491E087800F00F0004432C4334438D
:1028C0000C7070BD2A49491E0A7822F010020A7065
:1028D0000A7802430A7070472549491E0A7822F097
:1028E0000C020A700A7802430A7070472048401EA2
:1028F000017841F00201017028E61D48401E006881
:10290000C0F3471070471A48401C008870471848A9
:10291000401D008870471648401C008870471448C6
:10292000401D00887047124900200978AA2900D06C
:10293000012070470E48401E007800F00C007047E0
:102940000B4A521F0029116801D0014300E0814366
:10295000116070470146064A0020093A12680A428F
:1029600000D0012070470249093908607047000013
:10297000153C024070B55A484168491C4160816865
:1029800011B18168491E8160AFF300800024554E6B
:1029900018E006EB8405686890B1017B81B182681C
:1029A00072B1521E826069680AD148690969884714
:1029B0006868016881606868416809B9002101732D
:1029C000641CE4B23078A042E3D870BD4648016888
:1029D0004FF47A70B1FBF0F0401EB0F1807F12D25C
:1029E0004FF0E0225061414BF02083F8140D00209D
:1029F0009061072010613E48B1FBF0F13848C1609A
:102A0000012101707047FEE735480078002805D0A5
:102A10004FF0E020016941F00201016170474FF081
:102A2000E020016921F00201016170472DE9F047C2
:102A30002C4C0546DDF8209020781E461746884627
:102A4000052802D30020BDE8F087182003F08AFE95
:102A50000028F8D00560C0E901850773C0E9046962
:102A6000217804EB810148602178491C2170EAE754
:102A70001C4B30B400211A7806E003EB8104646833
:102A8000844203D0491CC9B28A42F6D88A4218D07F
:102A900003EB81004068EFF3108472B605E003EBAE
:102AA0008102491C9568C9B255601A78521E8A4243
:102AB000F5DC1978491E197004B962B630BC03F010
:102AC00080BE30BC70470021017370470121017343
:102AD00070470168816070474160704701607047CE
:102AE00010000020500200203C0200200FE000E017
:102AF000C0C62D000288520601D40020704702890A
:102B00009207FCD002891206F9D4818101898907D4
:102B1000FCD001890906F9D48089C0B2704770B52C
:102B2000FF4C054640212046FDF73FFF802120460F
:102B3000FDF73BFF2946FB48FFF7DCFF2046BDE8D9
:102B400070408021FDF72FBF70B5F54C0546402140
:102B50002046FDF728FF80212046FDF726FF294665
:102B6000F048FFF7C7FF2046BDE870408021FDF721
:102B70001ABF2DE9F04107461C4615460E462A208D
:102B8000FFF7CDFF380AFFF7DFFFF8B2FFF7DCFFF2
:102B9000280AFFF7D9FFE8B2FFF7D6FF2B20FFF78F
:102BA000BEFF300AFFF7D0FFF0B2FFF7CDFF200ADB
:102BB000FFF7CAFFE0B2BDE8F041C5E72DE9F041FB
:102BC0001D4614460E460746DDF81880FFF7D1FF74
:102BD0002C20FFF7A4FFE41BA81B401C641CD04F53
:102BE000444380213846FDF7E0FE40213846FDF79A
:102BF000DAFECC4E0121304600F0B1FFB513AC42F5
:102C000001D3681E00E0204682B24146304601F002
:102C1000A6FA304601F0D6FA0028FAD1AC420AD31F
:102C2000641CA2B24146304601F099FA304601F0E8
:102C3000C9FA0028FAD180213846FDF7B4FE3046A3
:102C4000BDE8F041002100F08ABF08B580B20090D5
:102C5000B548002143880088401E82B20846FFF72D
:102C6000ADFF08BD70B5AE4D4FF4807421462846C7
:102C7000FDF79BFE142000F0F3FC21462846FDF7EB
:102C800092FEAA48006800EB80004000401EFDD282
:102C90000120FFF744FF052000F0E2FCCB20FFF706
:102CA0003EFF3920FFF750FF2C20FFF74DFF00209B
:102CB000FFF74AFF3420FFF747FF0220FFF744FFEA
:102CC000CF20FFF72CFF0020FFF73EFFC120FFF7CA
:102CD0003BFF3020FFF738FFE820FFF720FF85207B
:102CE000FFF732FF0020FFF72FFF7820FFF72CFFC0
:102CF000EA20FFF714FF0020FFF726FF0020FFF770
:102D000023FFED20FFF70BFF6420FFF71DFF0320DB
:102D1000FFF71AFF1220FFF717FF8120FFF714FFBC
:102D2000F720FFF7FCFE2020FFF70EFFC020FFF783
:102D3000F6FE2320FFF708FFC120FFF7F0FE10206A
:102D4000FFF702FFC520FFF7EAFE3E20FFF7FCFE7B
:102D50002820FFF7F9FEC720FFF7E1FE8620FFF7E6
:102D6000F3FE3620FFF7DBFE4820FFF7EDFE3A20AA
:102D7000FFF7D5FE5520FFF7E7FEB120FFF7CFFEA6
:102D80000020FFF7E1FE1820FFF7DEFEB620FFF778
:102D9000C6FE0820FFF7D8FE8220FFF7D5FE2720C9
:102DA000FFF7D2FEF220FFF7BAFE0020FFF7CCFEBD
:102DB0002A20FFF7B4FE0020FFF7C6FE0020FFF731
:102DC000C3FE0020FFF7C0FEEF20FFF7BDFE2B2063
:102DD000FFF7A5FE0020FFF7B7FE0020FFF7B4FEC7
:102DE0000120FFF7B1FE3F20FFF7AEFE2620FFF7E0
:102DF00096FE0120FFF7A8FEE020FFF790FE1F20BF
:102E0000FFF7A2FE1A20FFF79FFE1820FFF79CFE97
:102E10000A20FFF799FE0F20FFF796FE0620FFF726
:102E200093FE4520FFF790FE8720FFF78DFE3220AE
:102E3000FFF78AFE0A20FFF787FE0720FFF784FED0
:102E40000220FFF781FE0720FFF77EFE0520FFF737
:102E50007BFE0020FFF778FEE120FFF760FE0020F8
:102E6000FFF772FE2520FFF76FFE2720FFF76CFEAD
:102E70000520FFF769FE1020FFF766FE0920FFF727
:102E800063FE3A20FFF760FE7820FFF75DFE4D20DD
:102E9000FFF75AFE0520FFF757FE1820FFF754FEF4
:102EA0000D20FFF751FE3820FFF74EFE3A20FFF7C6
:102EB0004BFE1F20FFF748FE1120FFF730FE1420C5
:102EC00000F0CEFB2920FFF72AFEBDE870402C2041
:102ED00025E67CB501250024114E23462A464021D3
:102EE0003046CDE9004500F045FF00230122802156
:102EF0003046CDE9004500F03DFFCDE90054012208
:102F000000231102304600F035FF80213046FDF7E6
:102F10004AFD044E0021304600F00FFD304607E028
:102F200000040240003C00402C0000201C00002057
:102F300001F03DF8FFF796FEFE48F0214480048042
:102F4000001D01804FF4A07141800571BDE87C40F7
:102F500040F2337079E62920E1E52820DFE510B55D
:102F600014460B460246FFF704FE2C20FFF7D7FD60
:102F7000C4F30720FFF7E8FDE0B2BDE81040E3E549
:102F800001B5009801E0401E00900028FBD108BD6B
:102F90002DE9F04104463620FFF7C1FDE54DF0274D
:102FA0002D1D4FF4A07634B1012C06D0022C0BD08D
:102FB000032C0BD00DE0582000E08820FFF7C4FD63
:102FC0002F806E80012007E0282000E0E820FFF736
:102FD000BBFD2E806F8000202871BDE8F0812DE9B7
:102FE000F84F1D469146DDE90AA3D24A1080518070
:102FF0002C782044141D2488A04204D96878084401
:1030000050800020108098B200906B7890465188D4
:10301000B8F800005A1893B22A78024492B2FFF727
:10302000CDFD00261CE0A9F1200111FB00606A68BB
:10303000002432F810700FE007FA04F000040AD5FB
:10304000B8F80210B8F800003144204489B280B2C8
:103050005246FFF784FF641C2878A042ECD8761C07
:103060006878B042DFD82978B8F800201144A8F871
:103070000010BDE8F88F2DE9FC47AE4DDDE90A9858
:1030800028801F461446064669800BE00A2A0ED0A7
:103090000D2A15D0CDE900983B4669882888641C24
:1030A000FFF79DFF2278002AF0D1BDE8FC876888F1
:1030B0007978401C0844688060780D2802D02E8002
:1030C000641CEFE700202880641CF9E730B54D78D8
:1030D00000241D8002E00B7823449CB210F8013BD1
:1030E000002BF8D1148030BD2DE9F04F9DB08A46F9
:1030F0000024A0F12001279D5F29CDE9182301D8E4
:1031000089B205E0C02802D3603881B200E05F21B7
:10311000684600EBC4000022C0E90022641C24B20F
:10312000022CF5DB01EB810083490026084417904F
:103130000120A840401E31462A46149003F068FB47
:103140002A46CDE9120103F063FB2A46CDE91001BE
:1031500003F05EFBCDE9151017980024A146815DB0
:103160002046149BCA0704D06A4602EBC002C2E99B
:103170000039DDE912238F070AD56F4607EBC00738
:10318000D7E900C84CEA020C48EA0308C7E900C8BE
:10319000DDE910234F070AD56F4607EBC007D7E9D3
:1031A00000C84CEA020C48EA0308C7E900C8DDE998
:1031B00015320F070AD56F4607EBC007D7E900C8DD
:1031C0004CEA020C48EA0308C7E900C8401C091190
:1031D00000B20228C5DBA8004FF000081A9018982A
:1031E00020440FFA80FB002434E0684600EBC80955
:1031F0004FF0000799F80000C043C0070BEB040034
:103200001B900CD01AE00AEB070005FB06001B9987
:1032100080B289B2199AFFF7A2FE7F1C3FB2AF427B
:10322000F1DB0DE00AEB070005FB06001B9980B2FD
:1032300089B2269AFFF793FE7F1C3FB2AF42F1DBC3
:10324000D9E9002041084FEA3202C9E9002104F11E
:10325000010424B21A988442C7DB08F101000FFA76
:1032600080F8B8F1020FBADB761C36B2052EFFF6F5
:1032700073AF1DB0BDE8F08F2DE9FC47DFF8B490C7
:10328000DDE90A8610F801CB9A4617460D4604463A
:1032900009F10A0934E0BCF1D00F02D0BCF1D10F22
:1032A00012D114F8012B002042EA0C22494631F8D1
:1032B0002030934204D109EB800090F802C003E073
:1032C000401CC0B24228F2D3CDE9008653463A46AC
:1032D00029466046FFF708FF06EB460005EB400075
:1032E00085B2A6EB86004FF4A07101EB4000A84226
:1032F00004DA07EBC600401C87B2002514F801CBA6
:10330000BCF1000FC7D1D0E62DE9FC5F9046094A19
:103310000C46121D054611881F46481EA94200D8BA
:1033200085B2414501D81FFA80F85188481EA14254
:1033300005D803E028000020B889000884B2B9420B
:1033400000D887B2454502D9284645468046BC424A
:1033500002D920463C460746A8EB050000B25FEACA
:10336000000AA7EB04000FFA80F908D0B9F1000FAA
:1033700005D04FF0FF3045450CD201210BE00C98F1
:103380003B4680B20090424621462846FFF716FC95
:10339000BDE8FC9F01460191BC4200D20120009093
:1033A0005046CA4501DCC9F1000000EBD070401066
:1033B00006B2CAF1000B214628460C9AFFF7CFFD52
:1033C000454501D1BC42E3D030465E4505DDA0EB6A
:1033D00009010EB2019929448DB24845EBDA06EB9A
:1033E0000A0006B20098204484B2E4E72DE9F843CD
:1033F0001D46089C16460F4680460B460094FFF774
:1034000083FF42462B46394610460094FFF77CFF67
:1034100032462B46394610460094FFF775FF2B467F
:103420003246194640460094FFF76EFFBDE8F88328
:1034300038B59042049D02D904461046224699426E
:1034400002D90C4619462346ACB20094FFF7B6FBEE
:10345000BDE8384080218D48FDF7A5BA2DE9FF4F22
:103460000746C2F1010014460FFA80F8C2EBC430DF
:1034700040000FFA80F983B00E46081981B24FF070
:10348000010A0025B8B2069AFFF769FD301B81B228
:10349000B8B2069AFFF763FD3819B1B280B2069A46
:1034A000FFF75DFDB1B2381B56E0B8F1000F09DB44
:1034B00009F102000FFA80F9641E08EB090024B23A
:1034C0000FFA80F80AF102000FFA80FA6D1C08EB7F
:1034D0000A002DB20FFA80F87819019006EB040B60
:1034E0001FFA8BF180B2069AFFF739FD781B009026
:1034F0001FFA8BF180B2069AFFF731FD0198A6EB17
:10350000040B1FFA8BF180B2069AFFF728FD009892
:103510001FFA8BF180B2069AFFF721FD381901904E
:1035200006EB050B1FFA8BF180B2069AFFF717FD29
:10353000381B00901FFA8BF180B2069AFFF70FFD3F
:103540000198A6EB050B1FFA8BF180B2069AFFF7E4
:1035500006FD00981FFA8BF180B2069AFFF7FFFC78
:10356000A542A2DB07B085E62DE9FE4F0746C2F172
:10357000010014460FFA80F8C2EBC43040000FFA85
:1035800080FA0E46081981B299464FF0010B0025CA
:10359000B8B21A46FFF7E3FC301B81B2B8B24A4614
:1035A000FFF7DDFC38190290B1B280B24A46FFF74E
:1035B000D6FC381B0190B1B280B24A46FFF7CFFC6F
:1035C0000298B3B2CDF8009082B2B1B240E0B8F147
:1035D000000F09DB0AF102000FFA80FA641E08EB03
:1035E0000A0024B20FFA80F80BF102000FFA80FBF8
:1035F0006D1C08EB0B002DB20FFA80F8781982B21F
:103600000290781BCDE9009031198BB289B280B25B
:10361000FFF77AFE0198311B82B202988BB2CDF887
:10362000009089B280B2FFF76FFE381B82B2029021
:103630003819CDE9009071198BB289B280B2FFF7C9
:1036400063FE711B02988BB2CDF8009082B289B2F2
:10365000019880B2FFF758FEA542B8DBBDE8FE8FA7
:103660000B4908B50A680092EFF3058242B14FF0AA
:10367000E021002809D00A69D203FAD5401EF8E7F4
:103680000A68009BD21A8242FAD308BD00040240A5
:103690001400002070471CB530B1032803D1052168
:1036A000FE48FFF7F7FF1CBD05210320CDE900010F
:1036B00000231A464FF4E041F94800F06CFB1CBDB2
:1036C0007CB50525F74E032440B101280CD0032812
:1036D00003D10521F448FFF7DDFF7CBD00231A4626
:1036E0004FF4607130460CE000231A464FF400613D
:1036F0003046CDE9004500F04EFB0023EB481A466A
:10370000C021CDE9004500F046FB7CBD1CB505227B
:10371000E74C032140B101280CD0032803D1052137
:10372000E448FFF7B7FF1CBDCDE9001200231A469D
:10373000642105E0CDE9001200231A464FF4E04170
:10374000204600F028FB1CBD1CB50622032140B119
:1037500001280DD0032803D10621D748FFF79AFF8F
:103760001CBDCDE9001200231A463821D34806E0DB
:10377000CDE9001200231A464FF4E051D04800F082
:103780000AFB1CBD7CB50525CC4E032450B1012895
:1037900016D002281AD0032803D10521C948FFF703
:1037A00079FF7CBD00231A464FF480613046CDE995
:1037B000004500F0F0FA00231A460C21C04809E049
:1037C00000231A464FF46041304603E00023BE4810
:1037D0001A460D21CDE9004500F0DDFA7CBD1CB58F
:1037E0000522032140B101280DD0032803D1052172
:1037F000B648FFF74FFF1CBDCDE9001200231A4663
:10380000E021B34805E0CDE9001200231A46382133
:10381000AA4800F0C0FA1CBD2DE9FF4F85B0044650
:10382000DDE912BA994616466846FDF736FBA74809
:10383000A84F0025844208D1386840F48050386091
:103840000698FFF7CCFFADF804509E48DFF884825D
:103850008442A8F104080AD1D8F8001041F480414C
:10386000C8F800100698FFF78DFFADF80450924895
:1038700084420AD1D8F8001041F40041C8F8001081
:103880000698FFF761FFADF804508A48844208D1DA
:10389000386840F4005038600698FFF737FFADF8FD
:1038A00004508148844208D1386840F48010386060
:1038B0000698FFF705FFADF804507848844208D118
:1038C000386840F4001038600698FFF7E4FEADF861
:1038D0000450ADF80C90ADF800504FF40070ADF806
:1038E0000EA0ADF802B0ADF80A0046B10121012EDC
:1038F00008D00220022E08D0032E0BD00EE0ADF827
:10390000065004E0ADF8065006E0ADF80600ADF84C
:10391000085003E0ADF80600ADF80810208820F04C
:103920004000208069462046FDF738FA208840F0A4
:103930004000208009B0BDE8F08F2DE9FC4104462D
:10394000624800250F464FF48276844205D1CDE9C6
:10395000006520230022FFF75FFF5A48844206D10A
:10396000CDE90065202300223946FFF755FF524874
:10397000844206D1CDE9006500231A463946FFF797
:103980004BFF4C48844206D1CDE90065202300223C
:103990003946FFF741FF4448844206D1CDE900652E
:1039A000202300223946FFF737FF3C48844206D1E6
:1039B000CDE90065202300223946FFF72DFFBDE841
:1039C000FC812DE9FC410446404800251746884605
:1039D0004FF48276844204D1CDE900652023FFF7BD
:1039E0001BFF3848844206D1CDE9006520233A46C2
:1039F0004146FFF711FF3048844206D1CDE900650A
:103A000000233A464146FFF707FF2A48844206D181
:103A1000CDE9006520233A464146FFF7FDFE2248E6
:103A2000844206D1CDE9006520233A464146FFF79E
:103A3000F3FE1A488442C2D1CDE9006520233A46FC
:103A40004146FFF7E9FEBAE72DE9FC470446DDE908
:103A50000A651E481F4690468946844205D1CDE935
:103A6000006513463A46FFF7D7FE1648844206D152
:103A7000CDE9006543463A464946FFF7CDFE0E487C
:103A8000844206D1CDE9006543463A464946FFF7F0
:103A9000C3FE0848844225D143461DE0005401403E
:103AA000001802400014024000500140001C024077
:103AB0000010024000340140003C0040000402407D
:103AC0000008024000380040002002400030014061
:103AD0000000024044380240CDE900653A464946BC
:103AE000FFF79AFE7748844206D1CDE90065434648
:103AF0003A464946FFF790FE7348844206D1CDE925
:103B0000006543463A464946FFF786FEBDE8FC8716
:103B10007FB50D00044620D06846FCF705FD6B48D4
:103B2000844208D06A48844205D06648844202D064
:103B30006548844201D1039900E0029900200124E4
:103B4000421C04FA02F3B1FBF3F3AB4202D8C0000B
:103B500004B070BDD0B20828F2D33820F8E702884C
:103B60000388C2F3C02223F04003038001290188A7
:103B700008D021F400610180018841F040010180FA
:103B80001046704741F40061F5E730B504886406DB
:103B900014D50489A407FCD004892406F9D4002490
:103BA0000AE00D5D85810589AD07FCD005892D06EC
:103BB000F9D485891555641C9C42F2D330BD10B5EB
:103BC00003885B0613D503899B07FCD003891B067A
:103BD000F9D4002309E0CC5C84810489A407FCD0DB
:103BE00004892406F9D484895B1C9342F3D310BD65
:103BF00030B50488640613D50489A407FCD0048971
:103C00002406F9D4002409E082810589AD07FCD09F
:103C100005892D06F9D485890D55641C9C42F3D382
:103C200030BD30B50488640616D50489A407FCD0DD
:103C300004892406F9D400240CE031F8145085815D
:103C40000589AD07FCD005892D06F9D4858922F8B0
:103C50001450641C9C42F0D330BD10B503885B0641
:103C600014D503899B07FCD003891B06F9D40023D4
:103C70000AE031F8134084810489A407FCD0048948
:103C80002406F9D484895B1C9342F2D310BD30B56D
:103C90000488640614D50489A407FCD0048924068A
:103CA000F9D400240AE082810589AD07FCD005899A
:103CB0002D06F9D4858921F81450641C9C42F2D356
:103CC00030BD000000500140005401400030014070
:103CD00000340140A3490844C0F38F2070472DE908
:103CE000F04F9A46DDE909B889460346FFF7F2FF2F
:103CF000C5B200204FF0030E0121814011EA090FE7
:103D000028D0994E36F815400C4326F81540DF6848
:103D100044000EFA04F6B7430BFA04FC47EA0C071A
:103D2000DF601F6802FA04FCB74347EA0C071F6014
:103D3000012A01D0022A0DD15F6889B28F430AFAA5
:103D400000F189B20F435F60996808FA04F4B14347
:103D500021439960401CC0B21028CDD3BDE8F08F3C
:103D600000B5FFF7B7FF0121814080480268114389
:103D7000016000BDFCB51646DDE907C50C0007462D
:103D800008D0FFF7EDFFCDE900C5324621463846A1
:103D9000FFF7A5FFFCBD2DE9FC4F9946DDE90BB708
:103DA00092460D00064622D0FFF7DAFF00220121DD
:103DB0004FF00F0C01FA02F028420DD0D00806EBAC
:103DC0008003186A5407E40E0CFA04F820EA08008D
:103DD00007FA04F420431862521C102AEAD3CDE9F2
:103DE000009B5346022229463046FFF778FFBDE884
:103DF000FC8FF0B50E460546FFF76CFF00225A49CE
:103E0000C4B24FF0010C03270CFA02F333420CD07A
:103E100028684FEA420E07FA0EFE40EA0E002860BC
:103E200031F81400984321F81400521CD2B2102A21
:103E3000EAD3F0BDF0B500220125032605FA02F30E
:103E40000B4205D00468570006FA07F39C43046050
:103E5000521CD2B2102AF1D3F0BDF0B500220127D6
:103E6000032607FA02F33C460B4208D005685300CC
:103E700006FA03FC25EA0C059C4025430560521C0C
:103E8000D2B2102AEDD3F0BDF0B5002201250326F1
:103E900005FA02F30B4205D00468570006FA07F34F
:103EA0001C430460521CD2B2102AF1D3F0BDF0B50D
:103EB000002201260324022706FA02F30B4209D04E
:103EC0000568530004FA03FC25EA0C0507FA03F31E
:103ED0001D430560521CD2B2102AEDD3F0BDF0B5DF
:103EE00000230127032507FA03F40C4209D0C66812
:103EF0005C0005FA04FC26EA0C0602FA04F42643E8
:103F0000C6605B1CDBB2102BEDD3F0BD41F48032F8
:103F1000C261C161C261C169C0697047002102E02C
:103F2000491C89B240080128FAD80846704700B5F4
:103F3000FFF7D0FE012181400C4802688A430260ED
:103F400000BD00B5FFF7C6FE074931F8100000BDFF
:103F500000B5FFF7BFFE044931F81000C04380B23E
:103F600000BD00000000FEBF6802002030380240A3
:103F7000AF4A0146904200D1AE48AF4A914201D1CA
:103F8000AC481830AD4A914201D1AA483030AC4A11
:103F9000914201D1A7484830AA4A914201D1A5488F
:103FA0006030A94A914201D1A2487830704710B5DB
:103FB000FFF7DEFFA54AA649436893420B6802D388
:103FC00043F4800301E043F400130B60C0689042A7
:103FD000086802D340F4800001E040F4001008605B
:103FE0009C4900204861C861086248628862C862D2
:103FF00008634863886310BD2DE9F0411F461446ED
:104000000D468046069EFFF7B3FF80E8F00040466D
:10401000BDE8F041CBE710B5FFF7AAFF04464068C2
:10402000FCF7F6FCE068BDE81040FCF7F1BC2DE9B8
:10403000F0479A4617460D460646FFF799FF044695
:10404000C068406818BB6068406800BB55EA07005C
:104050001DD0DFF800824FF00009A4F81490C8F8D2
:104060002090C8F810A006F10C01C8F81C90C8F800
:1040700004102168C8F80010402140464FF4806ABF
:10408000C8F80C1035B18560C8F818A007E000200A
:10409000BDE8F08704F110018160C8F818903D2157
:1040A000606800F0D9F86B496068FCF739FDA168D9
:1040B000C8F8001040464946C8F80C901FB1876008
:1040C000C8F818A004E004F110028260C8F81810C3
:1040D0003D21E06800F0C0F85E49E068FCF720FD93
:1040E000E068016841F0010101606068016841F029
:1040F00001010160B08840F00300B0800120C7E7F3
:104100002DE9F04116460F460546FFF731FF0446FC
:104110004068406810B10020BDE8F0814D4827613B
:1041200005F10C0106614160002181612268026095
:1041300040220162C260C1613D21606800F08CF8DC
:1041400044496068FCF7ECFC6068016841F00101DB
:104150000160A88840F00200A8800120DCE72DE97A
:10416000F04116460F460546FFF702FF0446406839
:10417000406808B10020CFE73648A78205F10C015E
:104180000661416004F114018160002181612168B0
:1041900001604021C160C90101628910C1613D21F6
:1041A000606800F059F82B496068FCF7B9FC60685A
:1041B000016841F001010160A88840F00200A88078
:1041C0000120A9E710B50446FFF7D2FEC16849688F
:1041D00041B94068406828B92089800702D0208909
:1041E000000601D5012010BD002010BD10B5FFF75D
:1041F000BFFE406810BD10B5FFF7BAFEC06810BD25
:1042000010B5FFF7B5FE0446406800F05BF8E068C3
:10421000BDE8104000F056B810B5FFF7A9FE0446FF
:10422000406800F07EF8E068BDE8104000F079B822
:10423000003001403C01002000380040003C0040BC
:10424000003401400050014000540140106402401D
:104250003038024080020020784A10B5182390427E
:1042600002D2774A774C03E0744A744C083A6442AD
:104270002044B0FBF3F0042801D3001F121D724B41
:1042800001F03D01185C8140116010BD3D21E3E764
:104290006A491822884203D269496A4B083903E007
:1042A0006649664B10395B421844B0FBF2F00428B3
:1042B00001D3001F091D0968634A105CC14001F069
:1042C0003D00704738B504463D21FFF7C5FF5E4A03
:1042D0005A4B1820121D01219C4207D2594B8DF8D0
:1042E00001102344B3FBF0F0125C08E0534B8DF84F
:1042F00001105B422344B3FBF0F00244127A8DF8C4
:1043000000208DF803108DF802006846FBF7E5FFEA
:10431000206840F01E002060606940F0800060610D
:1043200038BD10B504463D21FFF796FF4648434A85
:104330001821001D944201D2424A01E03F4A5242F4
:104340002244B2FBF1F14056012100F01F029140DE
:104350004009800000F1E020C0F88011206820F0C2
:104360001E002060606900F08000606110BD704731
:10437000704770477047704770B505463D21FFF79D
:1043800087FF84B23D212846FFF766FFA00605D5CA
:104390002868C00602D52846FFF7E9FFE00605D5E4
:1043A0002868000702D52846FFF7E2FF200705D559
:1043B0002868400702D52846FFF7DBFF600705D5D0
:1043C0002868800702D52846FFF7D4FFE00705D00C
:1043D0006869000602D52846FFF7CDFF70BD184872
:1043E0000830C9E716482030C6E715483830C3E71B
:1043F00013485030C0E712486830BDE7104880309D
:10440000BAE70F489830B7E70D48B030B4E70B482B
:10441000B2E70A481830AFE708483030ACE7074841
:104420004830A9E705486030A6E704487830A3E79C
:1044300002489030A0E70148A8309DE71064024090
:1044400008600240F09FFDBFD88C00082DE9F34FB3
:1044500081B090F80690DDF808C090F800A00679C9
:104460004579447A037AC279BCF1010F23D0DC4646
:1044700062F31F616AF3070C63F3070765F30F210B
:10448000E34664F30F2766F30701CC46C7F3072A18
:104490006CF31741BAF1630F7ED8FFB25FEA070EE3
:1044A0007AD0BEF10C0F77D80F0E00977ED05FEA5E
:1044B0008A7747D04FE04FEA121C02F00F080CEB4E
:1044C0008C0C08EB4C0C6CF31F614FEA131C03F0CF
:1044D0000F080CEB8C0C08EB4C0C6CF307074FEA45
:1044E000141C04F00F080CEB8C0C08EB4C0C6CF358
:1044F0000F274FEA151C05F00F080CEB8C0C08EB8E
:104500004C0C6CF30F214FEA161C06F00F080CEB55
:104510008C0C08EB4C0C6CF307014FEA1A1C0AF0E8
:104520000F080CEB8C0C08EB4C08DC4668F3070C0E
:10453000E3464FEA191C09F00F080CEB8C0C08EB52
:104540004C0CA3E70AF5FA674FF0640CB7FBFCF8D4
:104550000CFB18776FBB0AF5FA674FF4C87CB7FB02
:10456000FCF80CFB187727B3002707EB47074FF041
:10457000FF3CDFF838840CEB870C0EEB080717F8CC
:104580000CC0009FBC4511D3C1F30727172F0DD8CE
:10459000CFB23B2F0AD800E008E00BF0FF073B2F1B
:1045A00004D8C1F3074109B1072904D90120BDE8A6
:1045B000FE8F0127D9E7FD4914390D704E70007840
:1045C0008870081D002182704370C47080F80090CC
:1045D000F74801601F21416040F2FF318160FCF724
:1045E000D8FD0298F1490128A1F1140112D0002050
:1045F000FCF733FEED4900201039FCF7A8FEEB482C
:104600001838006820B144F221311320FDF784F9F5
:104610000020CCE70120FCF720FEE44910390120FE
:10462000EBE710B510B101280BD016E00120FBF725
:1046300013FF6120FBF7CCFE0028FAD04FF4007086
:1046400009E00120FBF7FCFE4120FBF7C1FE00283A
:10465000FAD04FF48070FBF7AAFF0120FBF7BCFFF4
:104660000020FCF7C2FDFCF7F9FC0120FCF7BDFDC2
:10467000BDE8104041F234211320FDF74DB9F0B5EB
:10468000427A002340F2B27102F5FA628A4201D204
:104690000020F0BD6425AE004FF4B77740F26D1CEA
:1046A0000FE08C0704D1B1FBF5F405FB14147CB9C1
:1046B000B1FBF6F406FB141454B16446491C2344C0
:1046C00089B29142EDD30121DFF8E0C2077A18E008
:1046D0003C46F3E7940704D1B2FBF5F405FB142440
:1046E0002CBBB2FBF6F406FB142404B3002404EB49
:1046F00044040CEB84040C44491C14F8014C89B2AA
:1047000023448F42E6D8C1795B1ECA18A9494A439F
:104710004179C1EB4113C3EB012102EB0112017995
:104720000078C1EB011102EB81010844F0BD0124C6
:10473000DDE770B50D009D490446A1F1140122D0BA
:104740000120FCF7DAFD994814380178617141784D
:1047500021718078207098480068944960801039F1
:104760009DB10120FCF741FE90481038C17861727C
:10477000417821728178E1710078A0712046FFF7BD
:104780007EFFE06070BD0020DBE70020EAE72DE956
:10479000FF47074601210807FBF779FF1320FDF7C4
:1047A000C3F8824D44F22131DFF81082183D4FF4F6
:1047B00080494FF48004884216D1296019E0002016
:1047C000FCF713FDFCF74AFC0120FCF70EFD484600
:1047D000FDF747F9C8F8004000216846FFF7A9FF38
:1047E000286804B0BDE8F08741F23426B04206D113
:1047F0002E60002FE3D10020FFF713FFDFE7002436
:1048000038462C60FFF70DFF01208DF807008DF86A
:1048100006008DF808008DF805408DF809408DF8E8
:1048200004408DF8004000216846FFF70FFE00208D
:104830002E60D6E77FB500210B468DF807106FF08C
:104840002F020AE09DF80750491C05EB850502EB95
:1048500045052C448DF80740C9B2445CA4F13005ED
:10486000092DEFD9491CC9B28DF808300AE09DF82E
:104870000850491C05EB850502EB45052C448DF8D5
:104880000840C9B2445CA4F13005092DEFD9491C98
:10489000C9B28DF809300AE09DF80950491C05EBB2
:1048A000850502EB45052C448DF80940C9B2445CEE
:1048B000A4F13005092DEFD9491CC9B28DF8063095
:1048C0000AE09DF80650491C05EB850502EB4505FD
:1048D0002C448DF80640C9B2445CA4F13005092D82
:1048E000EFD9491CC9B28DF805300AE09DF8055092
:1048F000491C05EB850502EB45052C448DF8054068
:10490000C9B2445CA4F13005092DEFD9491CC9B2E4
:104910008DF804300AE09DF80450491C05EB85052C
:1049200002EB45052C448DF80440C9B2445CA4F167
:104930003005092DEFD9491CC9B28DF800300AE0C5
:104940009DF80040491C04EB840402EB440423441A
:104950008DF80030C9B2435CA3F13004092CEFD9C3
:1049600000216846FFF772FD04B070BD08B10C2845
:1049700001D9002070478A0701F5FA6105D1642248
:10498000B1FBF2F302FB1312D2B94FF4C872B1FBC0
:10499000F2F302FB131199B10021044A01EB41012A
:1049A00002EB8101084410F8010C7047E40100207B
:1049B000BC0200208051010028280040143C014026
:1049C0000121EAE7810700F5FA6005D16421B0FB17
:1049D000F1F201FB120149B94FF4C871B0FBF1F2D9
:1049E00001FB120010B140F26D10DEE74FF4B7701A
:1049F000DBE72DE9F0470446CE484FF48008C0F8C5
:104A000000800020FCF713FE4FF4804A002150463E
:104A1000FCF7D7FFDFF820930321002689F8001068
:104A2000042189F8011089F8026089F8036048467A
:104A3000FBF753FC09F104070820C7F800803E711A
:104A40007871BE71002C48D0012689F80360381FA8
:104A5000FBF743FCBE710020FCF7E9FD012C12D0EE
:104A6000022C12D0032C12D0042C13D0052C14D0FD
:104A7000062C15D0072C16D0082C17D0092C18D0CE
:104A80000A2C19D01AE0AD4D18E0AD4D16E04EF6E7
:104A9000FF7513E049F6FF7510E044F6FF750DE071
:104AA00041F6FF750AE040F6FF7507E040F2FF753A
:104AB00004E040F2FF3501E040F2FF150120FCF771
:104AC00095FD2846FCF7A3FD01215046FCF779FF30
:104AD000BDE8F0470120FCF7AABD83E63C22B1FB0C
:104AE000F2F3F0B502FB1313C160B1FBF2F10370F6
:104AF000B1FBF2F302FB1313B1FBF2F103711822C5
:104B0000B1FBF2F302FB1313B1FBF2F14371CA1CC8
:104B10000723B2FBF3F403FB1422521C4FF4B774C7
:104B20008271A61E642340F2B2729D00970704D1E1
:104B3000B2FBF3F703FB17275FB9B2FBF5F705FBF1
:104B4000172737B1B14209D9A1F26D11521C92B2A7
:104B5000ECE7A14202D3A1F5B771F7E7A2F5FA6439
:104B600044720024744F04720C3707F10C0694074A
:104B700004D1B2FBF3F403FB1424ACB9B2FBF5F49B
:104B800005FB142484B1047A3C5D8C4206D8091BD1
:104B9000047A641CE4B204720C2CE8D3027A521C2E
:104BA0000272491CC171F0BD047AA45DEDE710B535
:104BB00010B1012817D108E000214FF48070FCF7F4
:104BC000CFFC00214FF4805407E000214FF4007027
:104BD000FCF7C6FC00214FF400542046FCF7F1FE20
:104BE0002046FCF717FF53484FF40031016052484C
:104BF000001D01600021017108214171001F292160
:104C000001700421417001218170C170BDE8104024
:104C1000FBF763BB7FB516460C460546FFF7C7FF9B
:104C2000E0788DF80000A0788DF8010060788DF8AC
:104C300002004FF00040019020780121F0B10020E7
:104C40000290207918B31F2800D91F208DF80C007E
:104C500005B3012D11D16C026A4621463046FCF79E
:104C6000E5FB01212046FCF77BFC01214C0320469B
:104C7000FCF7A7FE2046FCF7CDFE7FBD4FF080403D
:104C80000290207918B10728E0D90720DEE78DF8D7
:104C90000C10DDE74FF480746A4621463046FCF77D
:104CA000C5FB01212046FCF75BFC01210C03DEE77C
:104CB000122804D8234A02EB0010C0F8501874E6FA
:104CC000122801D9002070E61E4901EB0010D0F82F
:104CD00050086AE669E668E667E610B54FF4804476
:104CE0002046FCF7A3FE20B12046FCF7BAFEFFF7F2
:104CF000F1FF10494FF48000086010BD10B54FF46B
:104D000080542046FCF792FE20B12046FCF7A9FE15
:104D1000FFF7E1FF4FF400542046FCF787FE20B177
:104D20002046FCF79EFEFFF7D7FF02494FF4003004
:104D3000086010BD143C0140D8010020FFBF0300F3
:104D4000FFDF01000020004070B504462DED028B0E
:104D50008AB0F948B0EE408A0D46844202D0F74846
:104D6000844204D104200AB0BDEC028B70BD6946B8
:104D700020462C6000F0A6FC9DED000AB4EEC80AA7
:104D8000F1EE10FA12D3B5EEC08AF1EE10FA01D1AD
:104D90000220E8E7B0EE480A684600F0D8FC9DED36
:104DA000030AB5EEC00AF1EE10FA01D10120DAE7EC
:104DB00085ED038A9FEDE20AC0EE080AC5ED040AFC
:104DC0009DED030A85ED010A0498A860204600F0D5
:104DD00007FD04980026401EADF81800ADF81A60D3
:104DE0009DED030AF7EE000A06A930EE600A2046A0
:104DF000BCEEC00A8DED070AADF820608DF8226088
:104E0000FCF7E4FE01212046FCF73EFFCD4884423A
:104E100002D0CD48844203D101212046FDF740FA5B
:104E2000208840F00100208085F8246000209AE767
:104E30001CB502004FF0060001D005201CBD09235F
:104E4000032259B10129F9D1CDE9002300231A46E3
:104E50004902BE48FEF79FFF00201CBDCDE900239C
:104E600000231A468021BA48F4E71CB502004FF02F
:104E7000060001D005201CBD0923032259B10129D8
:104E8000F9D1CDE9002300231A460902AF48FEF705
:104E900082FF00201CBDCDE9002300231A46022119
:104EA000AB48F4E77CB50200AA4CAB4D4FF00600CE
:104EB0004FF009064FF0030303D0012A15D0052057
:104EC0007CBD39B10129FBD1CDE9003600231A465A
:104ED000402112E0CDE9003600231A464FF480410C
:104EE00013E0FEF758FF00207CBD41B10129FBD142
:104EF000CDE9003600231A4649022846F1E7CDE9FC
:104F0000003600231A464FF400412046E9E71CB55D
:104F100002004FF0060001D005201CBD032259B14C
:104F20000129FAD10092002301921A468021874874
:104F3000FEF731FF00201CBD0092002301921A46AB
:104F40004FF400718348F3E71CB502004FF00600F0
:104F500001D005201CBD032259B10129FAD10092CC
:104F6000002301921A4640217848FEF714FF0020E2
:104F70001CBD0092002301921A464FF480717548BF
:104F8000F3E77CB50200724C744D4FF006004FF011
:104F9000030303D0012A14D005207CBD39B10129B7
:104FA000FBD10093019300231A46202111E00093C6
:104FB000019300231A46042112E0FEF7ECFE0020C4
:104FC0007CBD41B10129FBD10093019300231A4616
:104FD00040212846F1E70093019300231A46082157
:104FE0002046EAE77CB502005D4C5E4D4FF00600BE
:104FF0004FF0030308D0012A19D0A615022A25D0A4
:10500000032A32D005207CBD39B10129FBD10093A0
:10501000019300231A4620212FE0009301930023DF
:105020001A46402131E0FEF7B6FE00207CBD39B1C2
:105030000129FBD10093019300231A4640211CE073
:105040000093019300231A4680211EE039B1012903
:10505000ECD10093019300231A4680210DE00093C8
:10506000019300231A4631460FE041B10129DDD1F9
:105070000093019300231A4631462846D3E7009354
:10508000019300231A464FF400712046CBE77CB50C
:1050900002002F4D304E4FF006004FF002034FF04C
:1050A000030407D0012A18D0022A25D0032A33D0BE
:1050B00005207CBD39B10129FBD1CDE90043002396
:1050C0001A46890220E0CDE9004300231A46012157
:1050D00030E0FEF760FE00207CBD39B10129FBD134
:1050E000CDE9004300231A46C9020DE0CDE9004393
:1050F00000231A4602211DE041B10129ECD1CDE97E
:10510000004300231A4609033046E2E7CDE9004395
:1051100000231A4604210DE039B10129DCD1CDE983
:10512000004300231A460F48D3E7CDE9004300238C
:105130001A4608212846CCE7001000400014004021
:1051400000247449000001400004014000140240A2
:105150000000024000040240001C02400010024017
:1051600000080240002002407CB50200FE4DFF4EC8
:105170004FF006004FF002034FF0030407D0012A5E
:1051800018D0022A25D0032A33D005207CBD39B19E
:105190000129FBD1CDE9004300231A46090330E081
:1051A000CDE9004300231A46402132E0FEF7F3FD2B
:1051B00000207CBD39B10129FBD1CDE9004300239A
:1051C0001A4649031DE0CDE9004300231A46802119
:1051D0001FE039B10129ECD1CDE9004300231A4683
:1051E00089030EE0CDE9004300231A464FF4807195
:1051F0000FE041B10129DCD1CDE9004300231A467B
:10520000C9033046D2E7CDE9004300231A464FF4E4
:1052100000712846CAE72DE9FC410400D44FD24D65
:10522000D44E4FF006004FF002024FF0030308D0B7
:10523000012C21D0022C37D0032C44D00520BDE80E
:10524000FC8149B101290DD00229F8D1CDE9003204
:1052500000231A4649023EE0CDE9003200231A46F7
:10526000402119E0CDE9003200231A46102139E02F
:10527000FEF791FD0020E2E749B101290ED0022995
:10528000DDD1CDE9003200231A46802123E0CDE9AB
:10529000003200231A4680213846E9E7CDE9003282
:1052A00000231A4620211DE039B10129C7D1CDE9DB
:1052B000003200231A4609020DE0CDE90032002336
:1052C0001A4601210EE041B10129B8D1CDE90032E1
:1052D00000231A4649023046CAE7CDE900320023CE
:1052E0001A4602212846C3E77CB50200A04D4FF0C4
:1052F00006004FF001034FF0030408D09A4E012A34
:1053000020D0022A2DD0032A3AD005207CBD49B1F5
:1053100001290DD00229F9D1CDE9004300231A4615
:1053200089033CE0CDE9004300231A46012136E021
:10533000CDE9004300231A46202130E0FEF72BFD83
:1053400000207CBD39B10129FBD1CDE90043002308
:105350001A4608211CE0CDE9004300231A46022129
:105360001DE039B10129ECD1CDE9004300231A46F3
:1053700089020DE0CDE9004300231A4604210EE026
:1053800041B10129DDD1CDE9004300231A46C9020C
:105390003046D3E7CDE9004300231A4608212846CA
:1053A000CCE72DE9FC418C460200714D724E4FF066
:1053B00006004FF001034FF003044FF4007108D0D2
:1053C0004F00012A1BD0022A2AD0032A3BD00520F5
:1053D00035E7BCF1000F07D0BCF1010FF8D1CDE9E2
:1053E000004300231A463AE0CDE9004300231A4661
:1053F0004FF480713BE0FEF7CEFC00201FE7BCF1CC
:10540000000F08D0BCF1010FE2D1CDE90043002329
:105410001A46394623E0CDE9004300231A4626E028
:10542000BCF1000F09D0BCF1010FD1D1CDE900438F
:1054300000231A464FF4005111E0CDE90043002348
:105440001A46394613E0BCF1000F0AD0BCF1010F37
:10545000BED1CDE9004300231A464FF480413046C7
:10546000C9E7CDE9004300231A464FF400612846FE
:10547000C1E70B4600684149884202D111461846EF
:105480008FE7B0F1804F05D03D49884205D11146E4
:105490001846C0E61146184626E73A49884202D126
:1054A0001146184660E63849884202D1114618462E
:1054B000EDE53649884202D11146184692E5344955
:1054C000884202D1114618465BE53249884202D132
:1054D0001146184638E53049884202D1114618462F
:1054E00015E52E49884202D111461846DAE42C49C6
:1054F000884202D111461846B7E42A49884202D1AF
:105500001146184694E40420704710B504462DED6A
:10551000028B86B0D0ED010AF4EEC00AF1EE10FA6B
:1055200004D8032006B0BDEC028B10BDBCEEC08ACF
:10553000702002228DED028AADF80000ADF80C203B
:10554000012004EB8102ADF8020082ED050A0A1E7B
:1055500000FA01F0C0B227D0012939D002294BD07E
:10556000032A70D15CE0000000040240000C0240FD
:10557000000002400008024000100240000001400C
:105580000004004000080040000C004000040140FE
:105590000040014000440140004801400018004024
:1055A000001C00400020004094F8241001420AD161
:1055B000014384F8241069462068FCF789FB082120
:1055C0002068FCF7C6FC216818EE100A48633AE030
:1055D00094F8241001420AD1014384F8241069464A
:1055E0002068FCF7A1FB08212068FCF7B8FC2168C3
:1055F00018EE100A886326E094F8241001420AD1BC
:10560000014384F8241069462068FCF7C9FB08218F
:105610002068FCF7AEFC216818EE100AC86312E09F
:1056200094F8241001420AD1014384F824106946F9
:105630002068FCF7EFFB08212068FCF7A0FC21683C
:1056400018EE100A086400206CE710EE102A1B4BBD
:105650009A4202DD90ED010A06E0B5EEC00AF1EED5
:1056600010FA02D89FED160A4FE7D0ED010AB7EE07
:10567000001A642370EEC10A20EE800ABCEEC00A54
:1056800010EE102AB2FBF3F200EE102AB8EE400A38
:10569000EAE7D0ED040AF4EEC00AF1EE10FA01D206
:1056A0000320704790ED011AF7EE001A31EE611AEF
:1056B00021EE001A81EE200A27E700000000C84210
:1056C000000000007FB504460D466846FAF72CFF3F
:1056D0004FF6FF709FEDA90AA860B4F1804F02D089
:1056E000A748844206D185ED000A9FEDA60A85ED04
:1056F000010A27E0A448DFEDA50A844220D0A4488F
:1057000084421DD0A34884421AD0A348844217D0B3
:10571000A248844214D0A248844211D0A1488442B5
:105720000ED0A14884420BD0A048844208D0A048A3
:10573000844205D09F48844202D09F48844204D1CD
:1057400085EC020A002004B070BD0220FBE7D0ED1A
:10575000001ADFED9A2A0023F4EEC01AF1EE10FAD7
:1057600006D20361C0ED032AC0ED052A032070476D
:10577000B5EEC00AF1EE10FA27D0D0ED010A904A3A
:1057800010EE901A914205DCB7EE001A70EE810A15
:10579000C0ED010A03618268B0EE602A521C016903
:1057A000491C00EE901AF8EE600A81EEA01AC1EED4
:1057B000000AC0ED030AF4EEC20A0161F1EE10FA2C
:1057C00001DD9142EBD9914206D90361C0ED032A74
:1057D000C0ED052A0420704780ED050A00207047BF
:1057E0006949784A884203D1116841F0010111608A
:1057F0007449091FB0F1804F55D0694B984203D1CD
:105800000B6843F002030B60664B984203D10B68B0
:1058100043F004030B605A4B984203D10B6843F0EA
:1058200008030B60604B984203D10B6843F01003F0
:105830000B605E4B984203D10B6843F020030B6072
:10584000534B984203D1136843F002031360514B4A
:10585000984203D1136843F4803313604E4B98424F
:1058600003D1136843F4003313604C4B984203D1C7
:10587000136843F4802313604D4A904203D10A68B1
:1058800042F040020A604B4A904203D10A6842F05B
:1058900080020A60484A904203D1086840F4807050
:1058A000086000207047086840F00100F8E73649BA
:1058B000444A884203D1116821F001011160414935
:1058C000091FB0F1804F55D0354B984203D10B687A
:1058D00023F002030B60334B984203D10B6823F093
:1058E00004030B60264B984203D10B6823F0080396
:1058F0000B602D4B984203D10B6823F010030B6013
:105900002A4B984203D10B6823F020030B60204BF5
:10591000984203D1136823F0020313601D4B984291
:1059200003D1136823F4803313601B4B984203D1D7
:10593000136823F400331360184B984203D11368A3
:1059400023F4802313601A4A904203D10A6822F09C
:1059500040020A60174A904203D10A6822F080028E
:105960000A60154A904203D1086820F480700860EC
:1059700000207047086820F00100F8E7A037A04C2D
:10598000000C00400000804F0000014000FF7F47F6
:105990000004014000400140004401400048014033
:1059A00000040040000800400010004000140040C7
:1059B00000180040001C00400020004000000000D3
:1059C00000FF7F474438024010B5FCF78FFDBDE86B
:1059D0001040FCF797BD2DE9FC5FFE4CFE49FF48E7
:1059E00094ED0F0AFFF7B0F9FB4994ED0F0AA031CF
:1059F000FB48FFF7A9F902260325DFF8E893CDE974
:105A0000005600231A4601214846FEF7C4F994EDDA
:105A10000D0ADFF8C483B5EEC00AF1EE10FA37D1F3
:105A2000D8ED010A9FEDF01A80EE810A84ED0D0A8F
:105A3000B4F9080000EE900AF8EEE00A60EE200AE1
:105A4000FDEEE00AC4ED060AB4F90A0000EE900A81
:105A5000F8EEE00A60EE200AFDEEE00AC4ED070A67
:105A6000B4F90C0000EE900AF8EEE00A60EE200AAD
:105A7000FDEEE00AC4ED080AB4F90E0000EE900A4B
:105A8000F8EEE00A20EE200ABDEEC00A84ED090A15
:105A9000A0690021401E00EE100ACF48B8EEC00AEF
:105AA000A030FFF732FDCC494FF0804B94ED0F0A48
:105AB00028315846FFF748F90127CDE90057002360
:105AC0001A4604214846FEF766F9E0690221401EA5
:105AD00000EE100AC048B8EEC00A2830FFF715FDE6
